:060000000A128A110C280F
:10000800FE00030EF5000A08F6000A128A111528E8
:100018000A128A110F28F701F80183010A128A11BE
:10002800C228831203130C1F1A281B281E281E0817
:10003800F8000C138C1D2128222857280A128A112F
:10004800AC200A128A117008710403192C282D2873
:1000580032280A128A1125210A128A110A128A11D3
:10006800D7200A128A1170037104031D3C283D2809
:1000780043280A128A1114210A128A11F7000A1257
:100088008A11EC200A128A1170037104031D4D288D
:100098004E28542878080A128A1101210A128A1156
:1000A800831203138C1176088A00750E8300FE0EE6
:1000B8007E0E090083120313A0008316031387150D
:1000C8000716803094008312031320088316031345
:1000D8009300363083120313940001308316031300
:1000E80091008B170B17831203138C1183160313BC
:1000F8008C150800831203139F131F17831603130D
:100108009F121F129F13831203139F121F129F1116
:100118001F111F14413083120313A000A00B922853
:1001280095280800831603170814890183120313FE
:1001380087010C13831603130C170F178F160F164E
:100148000F1450300A128A115E200A128A11080010
:10015800831203131412F401F40A141BB428B528EB
:10016800BA28941BB828B928BA28F4017408F200F0
:10017800F3017208F0007308F10008000A128A11EE
:1001880096200A128A110A128A117E200A128A11EE
:10019800831203139F18D128D228CC289F14CC2867
:1001A8000A128A110C28F40183160313941ADD2805
:1001B800DE28E4281419E128E228E428F401F40AE6
:1001C8007408F200F3017208F0007308F1000800E7
:1001D800F40183160313941AF228F328F928141D3E
:1001E800F628F728F928F401F40A7408F200F30154
:1001F8007208F0007308F1000800F000831203137E
:100208001308831603131410700883120313930042
:100218001416831603131418122913290D2908001C
:1002280083120313130883160313141C1C291D2996
:100238001729831203131308F00014169411700879
:1002480008008312031314121308141394131416BA
:0402580094110800F5
:08400000FF3FFF3FFF3FFF3FC0
:04400E00D420FF3F7C
:00000001FF
