:100000000A128A11F32FFF1B0D2883137F18831701
:100010000008840A0319FF0A080000308A00040857
:10002000840A82070034013400340A340034643412
:100030000034E834033410342734533431343A3440
:0800400000342534643400345F
:1008C80064008001840A0406031900340406652CB8
:1008D80083160313111483128C1D732C742C6F2C24
:1008E8008C11080083160313111583128C1D7D2C9F
:1008F8007E2C792C8C110800831603139115831212
:100908008C1D872C882C832C8C1113080800003030
:100918000A128A11A6240A128A1101300A128A11AF
:10092800A6240A128A110800F00070088312031323
:1009380093008C1DA02CA12C9D2C8C1183160313C5
:1009480011080800F30083120313081373080A122E
:100958008A11F9240A128A118312031388170B309B
:10096800F2006230F100F10BB72CF20BB72C00004B
:10097800831203138813080083160317880189015B
:1009880083160313860188018312031386018701E6
:100998008801831603130F178F160F160F14803054
:1009A8000A128A11DA240A128A110800F000831642
:1009B8000313871507167008940028308312031351
:1009C800940083160313910180307006031DED2CEB
:1009D800EE2CF12C13309300F82C7008031DF52C25
:1009E800F62CF82C1D3093000800F000701CFD2C2C
:1009F800FE2C022D831203130616052D83120313F2
:100A08000612F01C082D092D0B2D86160C2D8612AA
:100A1800701D0F2D102D122D0617132D0613F01D06
:100A2800162D172D192D86171A2D86130800F40078
:100A380074080F39F2007408F039F30083120313B5
:100A480008177308F10004300310F10CFF3E031D72
:100A5800282D71080A128A11F9240A128A118312A0
:100A6800031388171A30F100F10B382D0000831298
:100A78000313881372080A128A11F9240A128A11B8
:100A88008312031388171A30F100F10B492D000067
:100A98008312031388130800780879040319552D65
:100AA800562D852DFD01FD0A642D01300310F80D2A
:100AB800F90DFF3E031D5A2D0130FC007C08FD078F
:100AC800F91F672D682D592D79087B02031D6E2D9E
:100AD80078087A02031C712D722D782D7808FA0295
:100AE8007908031CFB03FB0201300310F90CF80C16
:100AF800FF3E031D792D0130FD02031D842D852D38
:100B0800682D7B08F9007A08F8000800FA01FB0153
:100B1800AF2D7A087507F8007608F7000318F70A6A
:100B2800FA1F972DF7037708F90079088312031342
:100B3800FF00780884000A128A1103200A128A1119
:100B48000A128A111B250A128A110130FA070318A2
:100B5800FB0A0030FB077A087507F8007608F700EB
:100B68000318F70AFA1FB92DF7037708F90079086F
:100B780083120313FF00780884000A128A110320E5
:100B88000A128A11003A031DCA2DCB2D8D2D08009B
:100B9800F501F601700871040319D32DD42D0B2E1D
:100BA800F701F70AE22D01300310F00DF10DFF3EB9
:100BB800031DD82D0130F4007408F707F11FE52D47
:100BC800E62DD72D01300310F50DF60DFF3E031D60
:100BD800E72D71087302031DF32D70087202031CC0
:100BE800F62DF72DFE2D7008F2027108031CF30391
:100BF800F302751401300310F10CF00CFF3E031DD5
:100C0800FF2D0130F702031D0A2E0B2EE62D760864
:100C1800F1007508F0000800F6007603031D152E94
:100C2800162E332E74087F3EF9007908F50004303B
:100C38000310F50CFF3E031D1C2E7508F7007908FC
:100C48000F39F80077080A128A11A6240A128A11A5
:100C580078080A128A11A6240A128A11552E02301F
:100C68007606031D382E392E552E7408BF3EF9001E
:100C78007908F50004300310F50CFF3E031D3F2EE4
:100C88007508F70079080F39F80077080A128A11F1
:100C9800A6240A128A1178080A128A11A6240A12AE
:100CA8008A11080000300A128A11F9240A128A11DE
:100CB8003430F500F130F400F40B602EF50B602EA3
:100CC800652E03300A128A11A6240A128A110D30E1
:100CD800F500FB30F400F40B6F2EF50B6F2E742E1D
:100CE80003300A128A11A6240A128A118530F400E8
:100CF800F40B7C2E03300A128A11A6240A128A11D8
:100D080002300A128A11A6240A128A1102300A1223
:100D18008A11A6240A128A1108300A128A11A624F6
:100D28000A128A1100300A128A11A6240A128A119C
:100D38000C300A128A11A6240A128A1100300A12EB
:100D48008A11A6240A128A1106300A128A11A624C8
:100D58000A128A114230F400F40BB02E0000080089
:100D68000A128A11C0240A128A110A128A115626F6
:100D78000A128A110A128A118B240A128A11F401A2
:100D8800F40A01300A128A1110260A128A110B304D
:100D9800F5008030F6000A128A118A250A128A1193
:100DA8000A128A116C240A128A1151300A128A1105
:100DB80098240A128A110A128A1180240A128A11A6
:100DC80083120313A000F401F40A02300A128A11F4
:100DD80010260A128A110F3083120313B500200857
:100DE800C200C3014208B6004308B70021300A1206
:100DF8008A1119270A128A112130F5000030F600ED
:100E08000A128A118A250A128A110A128A1176246C
:100E18000A128A11053083120313C200C20B122F63
:100E2800152FD42E0A128A11002883120313C0002A
:100E38003630BB00DE2F253041060319242F252F1D
:100E48002F2F400884004108831380000130B80028
:100E58003808C007DE2FBC010130B507FF30350761
:100E680084000A128A110D200A128A11C100B800E2
:100E7800B9013908003A0319422FDE2F3808003A21
:100E88000319EE2F643A03194D2F0D3A03194D2F0C
:100E9800DE2F3B08840083130008BE00840A000884
:100EA800BF000230B8003808BB07BF1F5C2F5D2F9A
:100EB800662F0330B8003808BC04BE09BF09BE0A53
:100EC8000319BF0AC101C10A4108B8003807013E29
:100ED80084000A128A110D200A128A11B9000A1216
:100EE8008A110D200A128A11BA003A083F02031D1E
:100EF8007F2F39083E020318822F832F842F8E2FCD
:100F08000130B8003808C10705304106031D8D2F90
:100F18008E2F682F3C0803390319932F942F9D2F88
:100F2800400884002D30831380000130B800380851
:100F3800C0074108BD00D52F0A30F8000030F9007D
:100F48003D08B8003807013E84000A128A110D20B6
:100F58000A128A11F0000A128A110D200A128A1147
:100F6800F1003F08F3003E08F2000A128A11CC256E
:100F78000A128A117108FB007008FA000A128A1115
:100F880050250A128A117808303E83120313C100D3
:100F9800400884004108831380000130B8003808F5
:100FA800C007FF30B8003808BD073D0A031DDD2F14
:100FB800DE2FA02F0130B507FF30350784000A1255
:100FC8008A110D200A128A11C1004108031DED2F54
:100FD800EE2F1F2F4008840083138001080083131D
:100FE8002030840035300A128A1164240A128A11CA
:080FF80083010A128A11B42ED4
:08400000FF3FFF3FFF3FFF3FC0
:04400E00D420FF3F7C
:00000001FF
