:060000000A128A110C280F
:10000800FE00030EF5000A08F6000A128A111F28DE
:100018000A128A110F28F701F801F90183134930F0
:10002800840065300A128A11F7270A128A1183019F
:100038000A128A110A2A0B1C22282328032A0B10C9
:1000480083120313861929282A283528F901F90A61
:100058000330F4009730F300F30B3028F40B30280A
:10006800352883120313861D3A283B286328790311
:10007800031D3F28402863284A08031D44284528B3
:100088004928CA01CA0AF90163284A03031D4D28F1
:100098004E2851280230CA00472802304A06031D5C
:1000A800562857285A280330CA00472803304A06DA
:1000B800031D5F2860286328CA01F901632806190F
:1000C8006628672872280230F9000330F400973058
:1000D800F300F30B6D28F40B6D28722883120313B9
:1000E800061D77287828902902307906031D7D2877
:1000F8007E2890294A03031D822883281929600332
:10010800031987288828AC280330600603198D282E
:100118008E28AC2805306006031993289428AC284B
:1001280007306006031999289A28AC280830600619
:1001380003199F28A028AC280A3060060319A528AF
:10014800A628AC280C306006031DAB28AC28C628AE
:100158001F306106031DB128B228BB281F30E100FB
:1001680061080A128A1582250A128A111729013094
:10017800F3007308E10761080A128A1582250A123A
:100188008A111729043060060319CB28CC28DE28E9
:10019800063060060319D128D228DE280930600607
:1001A8000319D728D828DE280B306006031DDD2860
:1001B800DE28F8281E306106031DE328E428ED2810
:1001C8001E30E10061080A128A1582250A128A1176
:1001D80017290130F3007308E10761080A128A152C
:1001E80082250A128A11172902306006031DFD288C
:1001F800FE2817291C306106031D032904290D292F
:100208001C30E10061080A128A1582250A128A1137
:1002180017290130F3007308E10761080A128A15EB
:1002280082250A128A11F901902902304A06031D13
:100238001E291F2970290C306006031D2429252931
:100248002E290C30E00060080A128A15A5250A122A
:100258008A1117290130F3007308E007043060069B
:100268000319372938294A290630600603193D2918
:100278003E294A29093060060319432944294A2995
:100288000B306006031D49294A29562961080319BC
:100298004E294F2956291E300A128A1582250A121C
:1002A8008A11672902306006031D5B295C296729CA
:1002B800610803196029612967291C300A128A1507
:1002C80082250A128A118312031360080A128A15FA
:1002D800A5250A128A11172903304A06031D752914
:1002E8007629902963305F06031D7B297C2985299F
:1002F8006330DF005F080A128A15C8250A128A11BE
:1003080017290130F3007308DF075F080A128A15FE
:10031800C8250A128A1117298312031386189529EA
:100328009629A1290330F9000330F4009730F3002F
:10033800F30B9C29F40B9C29A12983120313861C17
:10034800A629A729032A03307906031DAC29AD295C
:10035800032A4A03031DB129B229CA296103031DCF
:10036800B629B729C029E101E10A61080A128A15EC
:1003780082250A128A11C8290130E10261080A128D
:100388008A1582250A128A11F901032A02304A06BF
:10039800031DCF29D029E7296003031DD429D529B6
:1003A800DE29E001E00A60080A128A15A5250A126A
:1003B8008A11C8290130E00260080A128A15A525A9
:1003C8000A128A11C82903304A06031DEC29ED29AF
:1003D800032A5F08031DF129F229FA29DF015F08C2
:1003E8000A128A15C8250A128A11C8290130DF02A3
:1003F8005F080A128A15C8250A128A11C8297608C0
:100408008A00750E8300FE0E7E0E09000A128A15F8
:10041800EB250A128A110A128A11BE250A128A11BC
:100428000A128A15AC240A128A1183120313A40132
:10043800A40A01300A128A1172260A128A1131306E
:1004480083120313A5008030A6000A128A1104271C
:100458000A128A1100300A128A15AC260A128A1169
:1004680000300A128A1510260A128A110C300A1254
:100478008A155E260A128A1103300A128A1537264F
:100488000A128A110E300A128A1510260A128A11C7
:1004980002300A128A1585260A128A1117300A12A2
:1004A8008A15D3260A128A11831203134A08031DD8
:1004B8005E2A5F2AFA2A0A128A114A270A128A1120
:1004C800633083120313A8006230A90064300A1253
:1004D8008A1556270A128A11073083120313A400BB
:1004E80001300A128A1172260A128A111D308312EB
:1004F8000313AE006208C300C4014308AF004408F8
:10050800B0006308C500C6014508B1004608B2003E
:100518006408C700C8014708B3004808B4004B3056
:100528000A128A11E7230A128A114B308312031325
:10053800A5000030A6000A128A1104270A128A119F
:10054800603083120313A8005F30A90061300A12DB
:100558008A1521270A128A11073083120313A4006F
:1005680002300A128A1172260A128A110B3083127B
:100578000313AE006108C300C4014308AF00440878
:10058800B0006008C500C6014508B1004608B200C1
:100598005F08C700C8014708B3004808B4004B30DB
:1005A8000A128A11E7230A128A114B3083120313A5
:1005B800A5000030A6000A128A1104270A128A111F
:1005C800053083120313A40002300A128A1172261E
:1005D8000A128A113E3083120313A5008030A60048
:1005E8000A128A1104270A128A11582A4A03031D7B
:1005F800FE2AFF2A472B0730A40002300A128A116C
:1006080072260A128A110B3083120313AE00610896
:10061800C300C4014308AF004408B0006008C50027
:10062800C6014508B1004608B2005F08C700C80106
:100638004708B3004808B4004B300A128A11E72370
:100648000A128A114B3083120313A5000030A6004A
:100658000A128A1104270A128A1105308312031319
:10066800A40002300A128A1172260A128A1138303E
:1006780083120313A5008030A6000A128A110427EA
:100688000A128A11582A02304A06031D4C2B4D2B98
:10069800952B0730A40002300A128A1172260A121A
:1006A8008A110B3083120313AE006108C300C40122
:1006B8004308AF004408B0006008C500C6014508FB
:1006C800B1004608B2005F08C700C8014708B30078
:1006D8004808B4004B300A128A11E7230A128A111B
:1006E8004B3083120313A5000030A6000A128A11AA
:1006F80004270A128A11053083120313A40002305A
:100708000A128A1172260A128A113B3083120313C5
:10071800A5008030A6000A128A1104270A128A113D
:10072800582A03304A06031D9A2B9B2BE32B0730CC
:10073800A40002300A128A1172260A128A110B309A
:1007480083120313AE006108C300C4014308AF005D
:100758004408B0006008C500C6014508B100460855
:10076800B2005F08C700C8014708B3004808B400D2
:100778004B300A128A11E7230A128A114B3083126E
:100788000313A5000030A6000A128A1104270A12D2
:100798008A11053083120313A40002300A128A1149
:1007A80072260A128A11353083120313A50080308D
:1007B800A6000A128A1104270A128A11582A582AEE
:1007C8000A128A110C2883120313C0002F30B900B3
:1007D800A92D25303F060319F22BF32BFD2B4008DA
:1007E80084003F08831380000130B5003508C00736
:1007F800A92DBD01BE01BC01062C3C150130B50078
:100808003508AE072E0884000A128A112D260A120E
:100818008A11B500B6013608003A0319142C192CB0
:100828003508303A0319012C192C2E0884000A12B5
:100838008A112D260A128A110A128A15E9240A1227
:100848008A11031C282C292C6C2C83120313BD013C
:10085800BE010A3083120313A0000030A1003E0835
:10086800A3003D08A2000A128A15FA260A128A1164
:10087800831203132108BE002008BD002E0884003F
:100888000A128A112D260A128A11D03EB500FF30AD
:1008980003180030B6003508BD070318BE0A36082D
:1008A800BE070130B5003508AE072E0884000A12CD
:1008B8008A112D260A128A110A128A15E9240A12A7
:1008C8008A110318682C692C2D2C6C2C3C178E2C43
:1008D800013083120313AE07FF302E0784000A127B
:1008E8008A112D260A128A11BF00B500B6013608F2
:1008F800003A0319802CA92D3508003A0319B92D9F
:10090800643A03198E2C0D3A03198E2C1C3A0319DC
:100918006A2CA92D3C1B912C922CAC2C39088400F4
:1009280083130008BA00840A0008BB000230B5002F
:100938003508B907BB1FA12CA22CB82C0330B50071
:100948003508BC04BA09BB09BA0A0319BB0AB82C92
:100958003908840083130008BA00840A0008BB0021
:100968000230B5003508B907BF01BF0A3F08B50016
:100978003507013E84000A128A112D260A128A11AF
:10098800B6000A128A112D260A128A11B7003708F2
:100998003B02031DD12C36083A020318D42CD52C5F
:1009A800D62CE02C0130B5003508BF0705303F06CE
:1009B800031DDF2CE02CBA2C3D083E040319E52C5E
:1009C800E62CF22C3C0803390319EB2CEC2CF22C06
:1009D800FF30BD070318BE0AFF30BE073E08803A45
:1009E800803C031DF92C3D083F020318FC2CFD2C0C
:1009F800092D831203133F08B500B6013508BD025F
:100A08003608031CBE03BE020D2D83120313BD015D
:100A1800BE013C1D102D112D3C2D3C080339031936
:100A2800162D172D202D400884002D3083138000AB
:100A38000130B5003508C0073D083E040319252DCF
:100A4800262D662D40088400303083138000013045
:100A5800B5003508C007FF30BD070318BE0AFF30D0
:100A6800BE073D083E04031D3A2D3B2D262D662D5D
:100A78003D083E040319412D422D572D400884009E
:100A88002030831380000130B5003508C007FF30DF
:100A9800BD070318BE0AFF30BE073D083E04031D0C
:100AA800562D572D422D3C08033903195C2D5D2D19
:100AB800662D400884002D30831380000130B50076
:100AC8003508C0073F08B800A02D0A30A80000303C
:100AD800A9003808B5003507013E84000A128A11BA
:100AE8002D260A128A11A0000A128A112D260A122E
:100AF8008A11A1003B08A3003A08A2000A128A1131
:100B0800BE260A128A11831203132108AB0020089B
:100B1800AA000A128A15C4270A128A11831203131B
:100B28002808303EBF00400884003F088313800037
:100B38000130B5003508C007FF30B5003508B807E3
:100B4800380A031DA82DA92D692D0130AE07FF30E5
:100B58002E0784000A128A112D260A128A11BF0054
:100B68003F08031DB82DB92DED2B400884008313D1
:100B78008001080000300A128A1562250A128A11BB
:100B8800343083120313A500F130A400A40BCA2D3E
:100B9800A50BCA2D03300A128A152A250A128A11B2
:100BA8000D3083120313A500FB30A400A40BDA2D2B
:100BB800A50BDA2D03300A128A152A250A128A1182
:100BC800843083120313A400A40BE82D0000033023
:100BD8000A128A152A250A128A1102300A128A155F
:100BE8002A250A128A1102300A128A152A250A129F
:100BF8008A1108300A128A152A250A128A11003029
:100C08000A128A152A250A128A110C300A128A1524
:100C18002A250A128A1100300A128A152A250A1270
:100C28008A1106300A128A152A250A128A114130B9
:100C380083120313A400A40B1F2E222E0800FF1BEF
:100C48002D2E83137F1883170008840A0319FF0ABF
:100C5800080006308A000408840A82070034013438
:100C680000340A34003464340034E8340334103473
:100C7800273425343034323475342F342534303425
:100C8800323475342F3432343034253430343234FD
:100C980075342034003425343034323475343A34E1
:100CA80025343034323475343A34253430343234DF
:100CB80075342034003425346434203400345334FB
:100CC80031343A340034413420340034443420344C
:100CD80000344D3420340034543400348312031368
:100CE800A6002603031D792E7A2E992E24087F3E0E
:100CF800A9002908A50004300310A50CFF3E031D18
:100D0800802E2508A70029080F39A80027080A12ED
:100D18008A152A250A128A118312031328080A122F
:100D28008A152A250A128A11BD2E02302606031DAD
:100D38009E2E9F2EBD2E2408BF3EA9002908A5007F
:100D480004300310A50CFF3E031DA52E2508A7009F
:100D580029080F39A80027080A128A152A250A1215
:100D68008A118312031328080A128A152A250A12DF
:100D78008A11080083120313A501A6012008210483
:100D88000319C72EC82EFF2EA701A70AD62E013099
:100D98000310A00DA10DFF3E031DCC2E0130A400B1
:100DA8002408A707A11FD92EDA2ECB2E0130031055
:100DB800A50DA60DFF3E031DDB2E21082302031DF2
:100DC800E72E20082202031CEA2EEB2EF22E200822
:100DD800A2022108031CA303A30225140130031057
:100DE800A10CA00CFF3E031DF32E0130A702031D2A
:100DF800FE2EFF2EDA2E2608A1002508A0000800E6
:100E080083120313AA01AB012D2F2A082507A80076
:100E18002608A7000318A70AAA1F132FA7038312DF
:100E280003132708A9002908FF00280884000A12CC
:100E38008A1123260A128A110A128A158B270A1286
:100E48008A11013083120313AA070318AB0A003072
:100E5800AB072A082507A8002608A7000318A70A31
:100E6800AA1F372FA703831203132708A9002908ED
:100E7800FF00280884000A128A1123260A128A1100
:100E8800003A031D482F492F092F08000A128A1516
:100E980082240A128A1151300A128A15C7240A12AA
:100EA8008A110A128A15A1240A128A1183120313BD
:100EB800C900A401A40A02300A128A1172260A1271
:100EC8008A112D3083120313AE004908C100C201F4
:100ED8004108AF004208B0004B300A128A11E723DC
:100EE8000A128A114B3083120313A5000030A600A2
:100EF8000A128A1104270A128A110A128A158C24E6
:100F08000A128A11053083120313C100C10B8A2FFC
:100F18008D2F080083120313A2000A128A15822457
:100F28000A128A11D0300A128A15C7240A128A11A5
:100F38008312031322080A128A15C7240A128A1177
:100F48000A128A1578240A128A11D1300A128A15CF
:100F5800C7240A128A110A128A15A1240A128A11B0
:100F680083120313A3000A128A1596240A128A11FF
:100F78000A128A158C240A128A1105308312031367
:100F8800A100A10BC52FC82F831203132308080043
:100F980083120313A0008316031387150716831201
:100FA80003132008831603139400283083120313B5
:100FB80094008316031391018030831203132006D3
:100FC800031DE72FE82FED2F13308316031393002B
:100FD800F62F2008031DF12FF22FF62F1D30831650
:100FE80003139300080064008001840A04060319AF
:060FF80000340406F82F8E
:1018C80083160313111483128C1D6B2C6C2C672C3C
:1018D8008C11080083160313111583128C1D752CA7
:1018E800762C712C8C110800831603139114831223
:1018F8008C1D7F2C802C7B2C8C11080083160313E5
:10190800111483128C1D892C8A2C852C8C110800AB
:1019180083160313111583128C1D932C942C8F2C72
:101928008C110800831603139116111683128C1D4F
:101938009E2C9F2C9A2C8C1108008316031391154A
:1019480083128C1DA82CA92CA42C8C111308080018
:1019580000300A128A152A250A128A1501300A123D
:101968008A152A250A128A150800F00070088312C1
:10197800031393008C1DC12CC22CBE2C8C11831612
:1019880003131108080083120313A0002008930012
:101998008C1DCF2CD02CCC2C8C1183160313110842
:1019A8000800F000F1010A307002031CDC2CDD2C69
:1019B800E42C7008F63EF0007108103EF100D72CB8
:1019C80070087107F1007108080083120313A10061
:1019D800A0013A3021020318F22CF32CFB2C3030F2
:1019E8002102031CF82CF92CFB2CA001A00A200CC6
:1019F800080083120313A000A1010A302002031C6F
:101A0800062D072D0E2D2008F63EA0002108103EB9
:101A1800A100012D20082107A10021080800831238
:101A28000313A300A201231C1A2D1B2D1F2D200810
:101A3800A1002108A2070310A00D0310A30C23087E
:101A4800031D272D282D172D2208080083120313A4
:101A5800A300081323080A128A1562250A128A1598
:101A68008312031388170B3083120313A20061300B
:101A7800A100A10B3D2DA20B3D2D422D8312031376
:101A88008813080083120313A7000F302705A4004A
:101A98000A30A0002708A50004300310A50CFF3E5B
:101AA800031D512D25080A128A1513250A128A15B5
:101AB800831203132407A6002608080083120313C1
:101AC800A000201C682D692D6B2D06166C2D0612A2
:101AD800A01C6F2D702D722D8616732D8612201D59
:101AE800762D772D792D06177A2D0613A01D7D2DBD
:101AF8007E2D802D8617812D86130800F2000A128C
:101B08008A1564240A128A15D0300A128A15B92453
:101B18000A128A1504300A128A15B9240A128A157B
:101B280072080A128A15D5240A128A150A128A1509
:101B3800B9240A128A150A128A156E240A128A15FD
:101B48000800F2000A128A1564240A128A15D03095
:101B58000A128A15B9240A128A1505300A128A153A
:101B6800B9240A128A1572080A128A15D5240A128B
:101B78008A150A128A15B9240A128A150A128A15B0
:101B88006E240A128A150800F2000A128A156424C3
:101B98000A128A15D0300A128A15B9240A128A152F
:101BA80006300A128A15B9240A128A1572080A120E
:101BB8008A15D5240A128A150A128A15B9240A1216
:101BC8008A150A128A156E240A128A1508008316C5
:101BD8000317880189010E308316031386008801D4
:101BE800831203138601870188018B170B108B154D
:101BF8008316031381139615161596149515151546
:101C080095140F178F160F160F1480300A128A11A9
:101C1800CC270A128A15080083120313A2000A129D
:101C28008A1582240A128A15D0300A128A15C72406
:101C38000A128A1504300A128A15C7240A128A154C
:101C48008312031322080A128A15FD240A128A1520
:101C58000A128A15C7240A128A150A128A158C24B0
:101C68000A128A15080083120313A2000A128A15A1
:101C780082240A128A15D0300A128A15C7240A1239
:101C88008A1503300A128A15C7240A128A15831284
:101C9800031322080A128A15FD240A128A150A1249
:101CA8008A15C7240A128A150A128A158C240A1260
:101CB8008A15080083120313A2000A128A158224C7
:101CC8000A128A15D0300A128A15C7240A128A15F0
:101CD80002300A128A15C7240A128A1583120313BE
:101CE80022080A128A15FD240A128A150A128A1570
:101CF800C7240A128A150A128A158C240A128A1510
:101D0800080083120313A2000A128A1582240A12F9
:101D18008A15D0300A128A15C7240A128A15053086
:101D28000A128A15C7240A128A1583120313220875
:101D38000A128A15FD240A128A150A128A15C7245E
:101D48000A128A150A128A158C240A128A150800A2
:101D580083120313A2000A128A1582240A128A1512
:101D6800D0300A128A15C7240A128A1500300A12BE
:101D78008A15C7240A128A158312031322080A1225
:101D88008A15FD240A128A150A128A15C7240A120E
:101D98008A150A128A158C240A128A1508008312D9
:101DA8000313A2000A128A1582240A128A15D03057
:101DB8000A128A15C7240A128A1506300A128A15C9
:101DC800C7240A128A158312031322080A128A15D5
:101DD800FD240A128A150A128A15C7240A128A15BE
:101DE8000A128A158C240A128A1508008312031312
:101DF800A401A501201C012F022F082F2208A407E7
:101E08000318A50A2308A50701300310A20DA30D86
:101E1800FF3E031D092F01300310A10CA00CFF3E4B
:101E2800031D102F20082104031D1B2F1C2FFE2E1D
:101E38002508A1002408A000080083120313AA00A3
:101E48002A08840004300A128A118E270A128A1579
:101E58000A128A1546250A128A15831380008312EE
:101E680003132808840005300A128A118E270A12E3
:101E78008A150A128A1546250A128A1583138000C4
:101E8800831203132908840006300A128A118E2748
:101E98000A128A150A128A1546250A128A15831308
:101EA8008000080083120313AA002A088400003067
:101EB8000A128A118E270A128A150A128A154625CD
:101EC8000A128A15831380008312031328088400DA
:101ED80001300A128A118E270A128A150A128A15E7
:101EE80046250A128A1583138000831203132908D2
:101EF800840002300A128A118E270A128A150A12E1
:101F08008A1546250A128A15831380000800831251
:101F18000313A40024080F39A2002408F039A300F1
:101F280008172308A10004300310A10CFF3E031D6D
:101F3800982F21080A128A1562250A128A15831217
:101F480003138817193083120313A100A10BAA2FBA
:101F5800AD2F83120313881322080A128A156225EB
:101F68000A128A1583120313881719308312031370
:101F7800A100A10BBD2FC02F8312031388130800E3
:101F880083120313280829040319CB2FCC2FFB2F06
:101F9800AD01AD0ADA2F01300310A80DA90DFF3EDF
:101FA800031DD02F0130AC002C08AD07A91FDD2F71
:101FB800DE2FCF2F29082B02031DE42F28082A0221
:101FC800031CE72FE82FEE2F2808AA022908031C74
:101FD800AB03AB0201300310A90CA80CFF3E031D94
:101FE800EF2F0130AD02031DFA2FFB2FDE2F2B0838
:081FF800A9002A08A800080056
:08400000FF3FFF3FFF3FFF3FC0
:04400E00D420FF3F7C
:00000001FF
