:060000000A128A110C280F
:10000800FE00030EF5000A08F6000A128A11112AEA
:100018000A128A110F28F701F801F90183134930F0
:10002800840065300A128A154D240A128A11830148
:100038000A128A111F280A128A15C0250A128A1163
:100048000A128A11D3250A128A110A128A159D24C6
:100058000A128A1183120313A401A40A01300A1296
:100068008A1187260A128A11313083120313A500D8
:100078008030A6000A128A1119270A128A11003044
:100088000A128A1581260A128A1100300A128A1564
:10009800E5250A128A110C300A128A1533260A122B
:1000A8008A1103300A128A150C260A128A110E3098
:1000B8000A128A15E5250A128A1102300A128A15CF
:1000C8005A260A128A1117300A128A15A8260A1205
:1000D8008A11831203134A08031D732874280F29F1
:1000E8000A128A115F270A128A11633083120313D6
:1000F800A8006230A90064300A128A1556270A122D
:100108008A11073083120313A40001300A128A11DE
:1001180087260A128A111D3083120313AE00620863
:10012800C300C4014308AF004408B0006308C50019
:10013800C6014508B1004608B2006408C700C801F6
:100148004708B3004808B4004B300A128A11FC2350
:100158000A128A114B3083120313A5000030A6003F
:100168000A128A1119270A128A116030831203139E
:10017800A8005F30A90061300A128A1521270A12E7
:100188008A11073083120313A40002300A128A115D
:1001980087260A128A110B3083120313AE006108F6
:1001A800C300C4014308AF004408B0006008C5009C
:1001B800C6014508B1004608B2005F08C700C8017B
:1001C8004708B3004808B4004B300A128A11FC23D0
:1001D8000A128A114B3083120313A5000030A600BF
:1001E8000A128A1119270A128A1105308312031379
:1001F800A40002300A128A1187260A128A113E3098
:1002080083120313A5008030A6000A128A11192749
:100218000A128A116D284A03031D13291429632918
:100228000A128A115F270A128A11073083120313F0
:10023800A40002300A128A1187260A128A110B308A
:1002480083120313AE006108C300C4014308AF0062
:100258004408B0006008C500C6014508B10046085A
:10026800B2005F08C700C8014708B3004808B400D7
:100278004B300A128A11FC230A128A114B3083125E
:100288000313A5000030A6000A128A1119270A12C2
:100298008A11053083120313A40002300A128A114E
:1002A80087260A128A11383083120313A50080307A
:1002B800A6000A128A1119270A128A116D2802301B
:1002C8004A06031D68296929B8290A128A115F2775
:1002D8000A128A11073083120313A40002300A128B
:1002E8008A1187260A128A110B3083120313AE0073
:1002F8006108C300C4014308AF004408B0006008A7
:10030800C500C6014508B1004608B2005F08C7002D
:10031800C8014708B3004808B4004B300A128A11D4
:10032800FC230A128A114B3083120313A5000030F4
:10033800A6000A128A1119270A128A110530831297
:100348000313A40002300A128A1187260A128A119E
:100358003B3083120313A5008030A6000A128A11CD
:1003680019270A128A116D2803304A06031DBD2970
:10037800BE290D2A0A128A115F270A128A1107302C
:1003880083120313A40002300A128A1187260A1264
:100398008A110B3083120313AE006108C300C40135
:1003A8004308AF004408B0006008C500C60145080E
:1003B800B1004608B2005F08C700C8014708B3008B
:1003C8004808B4004B300A128A11FC230A128A1119
:1003D8004B3083120313A5000030A6000A128A11BD
:1003E80019270A128A11053083120313A400023058
:1003F8000A128A1187260A128A11353083120313CA
:10040800A5008030A6000A128A1119270A128A113B
:100418006D286D280A128A110C280B1C142A152A1B
:10042800F52B0B108312031386191B2A1C2A272A63
:10043800F901F90A0330F4009730F300F30B222A8C
:10044800F40B222A272A83120313861D2C2A2D2A0D
:10045800552A7903031D312A322A552A4A08031DD1
:10046800362A372A3B2ACA01CA0AF901552A4A03F9
:10047800031D3F2A402A432A0230CA00392A023083
:100488004A06031D482A492A4C2A0330CA00392A39
:1004980003304A06031D512A522A552ACA01F90176
:1004A800552A0619582A592A642A0230F9000330B5
:1004B800F4009730F300F30B5F2AF40B5F2A642AE9
:1004C80083120313061D692A6A2A822B02307906D1
:1004D800031D6F2A702A822B4A03031D742A752A6A
:1004E8000B2B60030319792A7A2A9E2A03306006A7
:1004F80003197F2A802A9E2A053060060319852A57
:10050800862A9E2A0730600603198B2A8C2A9E2A7F
:10051800083060060319912A922A9E2A0A3060063A
:100528000319972A982A9E2A0C306006031D9D2AD3
:100538009E2AB82A1F306106031DA32AA42AAD2AC1
:100548001F30E10061080A128A1557250A128A111C
:10055800092B0130F3007308E10761080A128A15B4
:1005680057250A128A11092B043060060319BD2A7F
:10057800BE2AD02A063060060319C32AC42AD02A04
:10058800093060060319C92ACA2AD02A0B30600626
:10059800031DCF2AD02AEA2A1E306106031DD52A58
:1005A800D62ADF2A1E30E10061080A128A1557256B
:1005B8000A128A11092B0130F3007308E107610858
:1005C8000A128A1557250A128A11092B0230600669
:1005D800031DEF2AF02A092B1C306106031DF52A9A
:1005E800F62AFF2A1C30E10061080A128A155725ED
:1005F8000A128A11092B0130F3007308E107610818
:100608000A128A1557250A128A11F901822B02301B
:100618004A06031D102B112B622B0C306006031D9C
:10062800162B172B202B0C30E00060080A128A15B5
:100638007A250A128A11092B0130F3007308E007A2
:10064800043060060319292B2A2B3C2B0630600640
:1006580003192F2B302B3C2B093060060319352B3F
:10066800362B3C2B0B306006031D3B2B3C2B482BB9
:1006780061080319402B412B482B1E300A128A159A
:1006880057250A128A11592B02306006031D4D2B7B
:100698004E2B592B61080319522B532B592B1C3005
:1006A8000A128A1557250A128A1183120313600841
:1006B8000A128A157A250A128A11092B03304A066A
:1006C800031D672B682B822B63305F06031D6D2B80
:1006D8006E2B772B6330DF005F080A128A159D2581
:1006E8000A128A11092B0130F3007308DF075F082B
:1006F8000A128A159D250A128A11092B83120313DF
:100708008618872B882B932B0330F9000330F400CD
:100718009730F300F30B8E2BF40B8E2B932B831255
:100728000313861C982B992BF52B03307906031D90
:100738009E2B9F2BF52B4A03031DA32BA42BBC2B0D
:100748006103031DA82BA92BB22BE101E10A610863
:100758000A128A1557250A128A11BA2B0130E102AA
:1007680061080A128A1557250A128A11F901F52B10
:1007780002304A06031DC12BC22BD92B6003031D6F
:10078800C62BC72BD02BE001E00A60080A128A1595
:100798007A250A128A11BA2B0130E00260080A127F
:1007A8008A157A250A128A11BA2B03304A06031DC4
:1007B800DE2BDF2BF52B5F08031DE32BE42BEC2B43
:1007C800DF015F080A128A159D250A128A11BA2BC1
:1007D8000130DF025F080A128A159D250A128A1164
:1007E800BA2B76088A00750E8300FE0E7E0E09006D
:1007F80083120313C0002F30B900BE2D25303F06E9
:100808000319072C082C122C400884003F08831376
:1008180080000130B5003508C007BE2DBD01BE01FE
:10082800BC011B2C3C150130B5003508AE072E085D
:1008380084000A128A1142260A128A11B500B601EA
:100848003608003A0319292C2E2C3508303A03199A
:10085800162C2E2C2E0884000A128A1142260A12FF
:100868008A110A128A15DA240A128A11031C3D2CED
:100878003E2C812C83120313BD01BE010A30831262
:100888000313A0000030A1003E08A3003D08A20009
:100898000A128A15CF260A128A1183120313210815
:1008A800BE002008BD002E0884000A128A114226C4
:1008B8000A128A11D03EB500FF3003180030B60086
:1008C8003508BD070318BE0A3608BE070130B50053
:1008D8003508AE072E0884000A128A1142260A1229
:1008E8008A110A128A15DA240A128A1103187D2C31
:1008F8007E2C422C812C3C17A32C0130831203132D
:10090800AE07FF302E0784000A128A1142260A1207
:100918008A11BF00B500B6013608003A0319952CB4
:10092800BE2D3508003A0319CE2D643A0319A32CBD
:100938000D3A0319A32C1C3A03197F2CBE2D3C1B1E
:10094800A62CA72CC12C3908840083130008BA00F0
:10095800840A0008BB000230B5003508B907BB1F80
:10096800B62CB72CCD2C0330B5003508BC04BA0919
:10097800BB09BA0A0319BB0ACD2C390884008313B2
:100988000008BA00840A0008BB000230B500350828
:10099800B907BF01BF0A3F08B5003507013E84000B
:1009A8000A128A1142260A128A11B6000A128A11FC
:1009B80042260A128A11B70037083B02031DE62CAB
:1009C80036083A020318E92CEA2CEB2CF52C0130F6
:1009D800B5003508BF0705303F06031DF42CF52C7C
:1009E800CF2C3D083E040319FA2CFB2C072D3C089C
:1009F80003390319002D012D072DFF30BD070318FA
:100A0800BE0AFF30BE073E08803A803C031D0E2D0B
:100A18003D083F020318112D122D1E2D83120313BA
:100A28003F08B500B6013508BD023608031CBE03F1
:100A3800BE02222D83120313BD01BE013C1D252DCC
:100A4800262D512D3C08033903192B2D2C2D352D1E
:100A5800400884002D30831380000130B50035082C
:100A6800C0073D083E0403193A2D3B2D7B2D400855
:100A780084003030831380000130B5003508C0078A
:100A8800FF30BD070318BE0AFF30BE073D083E040D
:100A9800031D4F2D502D3B2D7B2D3D083E04031982
:100AA800562D572D6C2D400884002030831380006C
:100AB8000130B5003508C007FF30BD070318BE0A6E
:100AC800FF30BE073D083E04031D6B2D6C2D572DCE
:100AD8003C0803390319712D722D7B2D40088400C1
:100AE8002D30831380000130B5003508C0073F085A
:100AF800B800B52D0A30A8000030A9003808B500A4
:100B08003507013E84000A128A1142260A128A1108
:100B1800A0000A128A1142260A128A11A1003B0873
:100B2800A3003A08A2000A128A11D3260A128A11CF
:100B3800831203132108AB002008AA000A128A15A1
:100B4800C4270A128A11831203132808303EBF00F3
:100B5800400884003F08831380000130B500350841
:100B6800C007FF30B5003508B807380A031DBD2D8A
:100B7800BE2D7E2D0130AE07FF302E0784000A12ED
:100B88008A1142260A128A11BF003F08031DCD2D83
:100B9800CE2D022C40088400831380010800003009
:100BA8000A128A1537250A128A1134308312031360
:100BB800A500F130A400A40BDF2DA50BDF2D033019
:100BC8000A128A151B250A128A110D308312031383
:100BD800A500FB30A400A40BEF2DA50BEF2D0330CF
:100BE8000A128A151B250A128A11843083120313EC
:100BF800A400A40BFD2D000003300A128A151B2542
:100C08000A128A1102300A128A151B250A128A1141
:100C180002300A128A151B250A128A1108300A1294
:100C28008A151B250A128A1100300A128A151B25FB
:100C38000A128A110C300A128A151B250A128A1107
:100C480000300A128A151B250A128A1106300A1268
:100C58008A151B250A128A11413083120313A40036
:100C6800A40B342E372E0800FF1B422E83137F1847
:100C780083170008840A0319FF0A080006308A004F
:100C88000408840A82070034013400340A3400342A
:100C980064340034E83403341034273425343034D1
:100CA800323475342F3425343034323475342F349B
:100CB800323430342534303432347534203400340E
:100CC80025343034323475343A34253430343234BF
:100CD80075343A34253430343234753420340034A1
:100CE8002534643420340034533431343A340034F5
:100CF8004134203400344434203400344D3420341A
:100D080000345434003483120313A6002603031D51
:100D18008E2E8F2EAE2E24087F3EA9002908A5000E
:100D280004300310A50CFF3E031D952E2508A700CF
:100D380029080F39A80027080A128A151B250A1244
:100D48008A118312031328080A128A151B250A120E
:100D58008A11D22E02302606031DB32EB42ED22EAF
:100D68002408BF3EA9002908A50004300310A50CDB
:100D7800FF3E031DBA2E2508A70029080F39A80031
:100D880027080A128A151B250A128A1183120313CF
:100D980028080A128A151B250A128A1108008312CC
:100DA8000313A501A601200821040319DC2EDD2E5A
:100DB800142FA701A70AEB2E01300310A00DA10DD7
:100DC800FF3E031DE12E0130A4002408A707A11F40
:100DD800EE2EEF2EE02E01300310A50DA60DFF3EDE
:100DE800031DF02E21082302031DFC2E20082202D9
:100DF800031CFF2E002F072F2008A2022108031C26
:100E0800A303A302251401300310A10CA00CFF3E7C
:100E1800031D082F0130A702031D132F142FEF2ED7
:100E28002608A1002508A000080083120313AA01C0
:100E3800AB01422F2A082507A8002608A700031897
:100E4800A70AAA1F282FA703831203132708A9009C
:100E58002908FF00280884000A128A1138260A1275
:100E68008A110A128A158B270A128A1101308312F5
:100E78000313AA070318AB0A0030AB072A08250793
:100E8800A8002608A7000318A70AAA1F4C2FA70323
:100E9800831203132708A9002908FF0028088400E3
:100EA8000A128A1138260A128A11003A031D5D2F88
:100EB8005E2F1E2F08000A128A1573240A128A113F
:100EC80051300A128A15B8240A128A110A128A1590
:100ED80092240A128A1183120313C900A401A40AD6
:100EE80002300A128A1187260A128A112D308312BB
:100EF8000313AE004908C100C2014108AF0042080F
:100F0800B0004B300A128A11FC230A128A114B30A6
:100F180083120313A5000030A6000A128A111927AC
:100F28000A128A110A128A157D240A128A110530BA
:100F380083120313C100C10B9F2FA22F0800831235
:100F48000313A2000A128A1573240A128A11D030D8
:100F58000A128A15B8240A128A1183120313220866
:100F68000A128A15B8240A128A110A128A156924E3
:100F78000A128A11D1300A128A15B8240A128A1163
:100F88000A128A1592240A128A1183120313A300E3
:100F98000A128A1587240A128A110A128A157D24D0
:100FA8000A128A11053083120313A100A10BDA2F4C
:100FB800DD2F831203132308080083120313A700ED
:100FC8000F302705A4000A30A0002708A500043028
:100FD8000310A50CFF3E031DEC2F25080A128A15E5
:100FE80004250A128A11831203132407A60026086F
:020FF8000800EF
:10189A0064008001840A04060319003404064E2CED
:1018AA0083160313111483128C1D5C2C5D2C582C87
:1018BA008C11080083160313111583128C1D662CD4
:1018CA00672C622C8C11080083160313911483125F
:1018DA008C1D702C712C6C2C8C1108008316031330
:1018EA00111483128C1D7A2C7B2C762C8C110800F7
:1018FA0083160313111583128C1D842C852C802CBE
:10190A008C110800831603139116111683128C1D6D
:10191A008F2C902C8B2C8C11080083160313911595
:10192A0083128C1D992C9A2C952C8C111308080063
:10193A0000300A128A151B250A128A1501300A126A
:10194A008A151B250A128A150800F00070088312EE
:10195A00031393008C1DB22CB32CAF2C8C1183165D
:10196A0003131108080083120313A0002008930030
:10197A008C1DC02CC12CBD2C8C118316031311088D
:10198A000800F000F1010A307002031CCD2CCE2CA5
:10199A00D52C7008F63EF0007108103EF100C82CF4
:1019AA0070087107F1007108080083120313A1007F
:1019BA00A0013A3021020318E32CE42CEC2C30303D
:1019CA002102031CE92CEA2CEC2CA001A00A200C11
:1019DA00080083120313A000A1010A302002031C8D
:1019EA00F72CF82CFF2C2008F63EA0002108103E08
:1019FA00A100F22C20082107A10021080800831267
:101A0A000313A300A201231C0B2D0C2D102D20085B
:101A1A00A1002108A2070310A00D0310A30C23089C
:101A2A00031D182D192D082D2208080083120313EF
:101A3A00A300081323080A128A1537250A128A15E1
:101A4A008312031388170B3083120313A200613029
:101A5A00A100A10B2E2DA20B2E2D332D83120313C1
:101A6A008813080083120313A000201C3D2D3E2D6D
:101A7A00402D0616412D0612A01C442D452D472D3A
:101A8A008616482D8612201D4B2D4C2D4E2D0617DD
:101A9A004F2D0613A01D522D532D552D8617562D49
:101AAA0086130800F2000A128A1555240A128A15AA
:101ABA00D0300A128A15AA240A128A1504300A1288
:101ACA008A15AA240A128A1572080A128A15C624C5
:101ADA000A128A150A128A15AA240A128A150A12E1
:101AEA008A155F240A128A150800F2000A128A155A
:101AFA0055240A128A15D0300A128A15AA240A1203
:101B0A008A1505300A128A15AA240A128A15720839
:101B1A000A128A15C6240A128A150A128A15AA24D2
:101B2A000A128A150A128A155F240A128A150800EF
:101B3A00F2000A128A1555240A128A15D0300A129E
:101B4A008A15AA240A128A1506300A128A15AA24A4
:101B5A000A128A1572080A128A15C6240A128A15E6
:101B6A000A128A15AA240A128A150A128A155F24E9
:101B7A000A128A15080083160317880189010E3094
:101B8A0083160313860088018312031386018701D3
:101B9A0088018B170B108B15831603138113961567
:101BAA00161596149515151595140F178F160F16E9
:101BBA000F1480300A128A15F6260A128A150800AE
:101BCA0083120313A2000A128A1573240A128A15B1
:101BDA00D0300A128A15B8240A128A1504300A1259
:101BEA008A15B8240A128A158312031322080A12C4
:101BFA008A15EE240A128A150A128A15B8240A12BC
:101C0A008A150A128A157D240A128A150800831277
:101C1A000313A2000A128A1573240A128A15D030F5
:101C2A000A128A15B8240A128A1503300A128A156A
:101C3A00B8240A128A158312031322080A128A1573
:101C4A00EE240A128A150A128A15B8240A128A156B
:101C5A000A128A157D240A128A15080083120313B0
:101C6A00A2000A128A1573240A128A15D0300A129F
:101C7A008A15B8240A128A1502300A128A15B8245B
:101C8A000A128A158312031322080A128A15EE24ED
:101C9A000A128A150A128A15B8240A128A150A1211
:101CAA008A157D240A128A15080083120313A200DA
:101CBA000A128A1573240A128A15D0300A128A1552
:101CCA00B8240A128A1505300A128A15B8240A128B
:101CDA008A158312031322080A128A15EE240A129D
:101CEA008A150A128A15B8240A128A150A128A153E
:101CFA007D240A128A15080083120313A2000A120D
:101D0A008A1573240A128A15D0300A128A15B82441
:101D1A000A128A1500300A128A15B8240A128A157C
:101D2A008312031322080A128A15EE240A128A154C
:101D3A000A128A15B8240A128A150A128A157D24EB
:101D4A000A128A15080083120313A2000A128A15BE
:101D5A0073240A128A15D0300A128A15B8240A1274
:101D6A008A1506300A128A15B8240A128A158312AD
:101D7A00031322080A128A15EE240A128A150A1275
:101D8A008A15B8240A128A150A128A157D240A129B
:101D9A008A15080083120313A401A501201CD62E5C
:101DAA00D72EDD2E2208A4070318A50A2308A507A3
:101DBA0001300310A20DA30DFF3E031DDE2E0130DC
:101DCA000310A10CA00CFF3E031DE52E20082104E0
:101DDA00031DF02EF12ED32E2508A1002408A00001
:101DEA00080083120313A00083160313871507162E
:101DFA0083120313200883160313940028308312D6
:101E0A000313940083160313910180308312031382
:101E1A002006031D112F122F172F133083160313B9
:101E2A009300202F2008031D1B2F1C2F202F1D304D
:101E3A00831603139300080083120313AA002A08C7
:101E4A00840004300A128A11A3270A128A150A1278
:101E5A008A11E1270A128A15831380008312031359
:101E6A002808840005300A128A11A3270A128A1543
:101E7A000A128A11E1270A128A1583138000831233
:101E8A0003132908840006300A128A11A3270A12AA
:101E9A008A150A128A11E1270A128A158313800009
:101EAA00080083120313AA002A08840000300A12C9
:101EBA008A11A3270A128A150A128A11E1270A121D
:101ECA008A158313800083120313280884000130C3
:101EDA000A128A11A3270A128A150A128A11E127FD
:101EEA000A128A15831380008312031329088400B7
:101EFA0002300A128A11A3270A128A150A128A11B3
:101F0A00E1270A128A15831380000800831203133B
:101F1A00A40024080F39A2002408F039A3000817E6
:101F2A002308A10004300310A10CFF3E031D982FC3
:101F3A0021080A128A1537250A128A1583120313F1
:101F4A008817193083120313A100A10BAA2FAD2FF2
:101F5A0083120313881322080A128A1537250A12D4
:101F6A008A15831203138817193083120313A100E9
:101F7A00A10BBD2FC02F83120313881308008312ED
:101F8A000313280829040319CB2FCC2FFB2FAD01EB
:101F9A00AD0ADA2F01300310A80DA90DFF3E031D6B
:101FAA00D02F0130AC002C08AD07A91FDD2FDE2F82
:101FBA00CF2F29082B02031DE42F28082A02031C0D
:101FCA00E72FE82FEE2F2808AA022908031CAB03E3
:101FDA00AB0201300310A90CA80CFF3E031DEF2F22
:101FEA000130AD02031DFA2FFB2FDE2F2B08A900AB
:061FFA002A08A8000800FF
:08400000FF3FFF3FFF3FFF3FC0
:04400E00D420FF3F7C
:00000001FF
